{
  "contractName": "Mayor",
  "abi": [
    {
      "inputs": [
        {
          "components": [
            {
              "internalType": "address payable",
              "name": "cand",
              "type": "address"
            },
            {
              "internalType": "address payable",
              "name": "coal",
              "type": "address"
            }
          ],
          "internalType": "struct Mayor.Candidate[]",
          "name": "_candidate_list",
          "type": "tuple[]"
        },
        {
          "internalType": "address payable",
          "name": "_escrow",
          "type": "address"
        },
        {
          "internalType": "uint32",
          "name": "_quorum",
          "type": "uint32"
        }
      ],
      "payable": false,
      "stateMutability": "nonpayable",
      "type": "constructor"
    },
    {
      "anonymous": false,
      "inputs": [
        {
          "indexed": false,
          "internalType": "address",
          "name": "_voter",
          "type": "address"
        }
      ],
      "name": "EnvelopeCast",
      "type": "event"
    },
    {
      "anonymous": false,
      "inputs": [
        {
          "indexed": false,
          "internalType": "address",
          "name": "_voter",
          "type": "address"
        },
        {
          "indexed": false,
          "internalType": "uint256",
          "name": "_soul",
          "type": "uint256"
        },
        {
          "indexed": false,
          "internalType": "address",
          "name": "_symbol",
          "type": "address"
        }
      ],
      "name": "EnvelopeOpen",
      "type": "event"
    },
    {
      "anonymous": false,
      "inputs": [
        {
          "indexed": false,
          "internalType": "address",
          "name": "_candidate",
          "type": "address"
        }
      ],
      "name": "NewMayor",
      "type": "event"
    },
    {
      "anonymous": false,
      "inputs": [
        {
          "indexed": false,
          "internalType": "address",
          "name": "_escrow",
          "type": "address"
        }
      ],
      "name": "Sayonara",
      "type": "event"
    },
    {
      "constant": true,
      "inputs": [
        {
          "internalType": "uint256",
          "name": "",
          "type": "uint256"
        }
      ],
      "name": "candidate_list",
      "outputs": [
        {
          "internalType": "address payable",
          "name": "cand",
          "type": "address"
        },
        {
          "internalType": "address payable",
          "name": "coal",
          "type": "address"
        }
      ],
      "payable": false,
      "stateMutability": "view",
      "type": "function"
    },
    {
      "constant": true,
      "inputs": [
        {
          "internalType": "uint256",
          "name": "",
          "type": "uint256"
        }
      ],
      "name": "coalitions",
      "outputs": [
        {
          "internalType": "address",
          "name": "",
          "type": "address"
        }
      ],
      "payable": false,
      "stateMutability": "view",
      "type": "function"
    },
    {
      "constant": true,
      "inputs": [],
      "name": "current",
      "outputs": [
        {
          "internalType": "uint256",
          "name": "",
          "type": "uint256"
        }
      ],
      "payable": false,
      "stateMutability": "view",
      "type": "function"
    },
    {
      "constant": true,
      "inputs": [],
      "name": "escrow",
      "outputs": [
        {
          "internalType": "address payable",
          "name": "",
          "type": "address"
        }
      ],
      "payable": false,
      "stateMutability": "view",
      "type": "function"
    },
    {
      "constant": true,
      "inputs": [],
      "name": "tot_votes",
      "outputs": [
        {
          "internalType": "uint256",
          "name": "",
          "type": "uint256"
        }
      ],
      "payable": false,
      "stateMutability": "view",
      "type": "function"
    },
    {
      "constant": false,
      "inputs": [
        {
          "internalType": "bytes32",
          "name": "_envelope",
          "type": "bytes32"
        }
      ],
      "name": "cast_envelope",
      "outputs": [],
      "payable": false,
      "stateMutability": "nonpayable",
      "type": "function"
    },
    {
      "constant": false,
      "inputs": [
        {
          "internalType": "uint256",
          "name": "_sigil",
          "type": "uint256"
        },
        {
          "internalType": "address",
          "name": "_symbol",
          "type": "address"
        }
      ],
      "name": "open_envelope",
      "outputs": [],
      "payable": true,
      "stateMutability": "payable",
      "type": "function"
    },
    {
      "constant": false,
      "inputs": [],
      "name": "mayor_or_sayonara",
      "outputs": [],
      "payable": false,
      "stateMutability": "nonpayable",
      "type": "function"
    },
    {
      "constant": true,
      "inputs": [
        {
          "internalType": "uint256",
          "name": "_sigil",
          "type": "uint256"
        },
        {
          "internalType": "address",
          "name": "_symbol",
          "type": "address"
        },
        {
          "internalType": "uint256",
          "name": "_soul",
          "type": "uint256"
        }
      ],
      "name": "compute_envelope",
      "outputs": [
        {
          "internalType": "bytes32",
          "name": "",
          "type": "bytes32"
        }
      ],
      "payable": false,
      "stateMutability": "pure",
      "type": "function"
    },
    {
      "constant": true,
      "inputs": [
        {
          "internalType": "address[]",
          "name": "array",
          "type": "address[]"
        }
      ],
      "name": "azzera",
      "outputs": [
        {
          "internalType": "address[]",
          "name": "",
          "type": "address[]"
        }
      ],
      "payable": false,
      "stateMutability": "pure",
      "type": "function"
    },
    {
      "constant": true,
      "inputs": [],
      "name": "getCandidates",
      "outputs": [
        {
          "internalType": "address[]",
          "name": "",
          "type": "address[]"
        }
      ],
      "payable": false,
      "stateMutability": "view",
      "type": "function"
    },
    {
      "constant": true,
      "inputs": [],
      "name": "getCoalitions",
      "outputs": [
        {
          "internalType": "address[]",
          "name": "",
          "type": "address[]"
        }
      ],
      "payable": false,
      "stateMutability": "view",
      "type": "function"
    }
  ],
  "bytecode": "0x60806040523480156200001157600080fd5b50604051620033df380380620033df8339818101604052620000379190810190620005f2565b60008090505b8351811015620003f05760008482815181106200005657fe5b60200260200101519080600181540180825580915050906001820390600052602060002090600202016000909192909190915060008201518160000160006101000a81548173ffffffffffffffffffffffffffffffffffffffff021916908373ffffffffffffffffffffffffffffffffffffffff16021790555060208201518160010160006101000a81548173ffffffffffffffffffffffffffffffffffffffff021916908373ffffffffffffffffffffffffffffffffffffffff160217905550505050600073ffffffffffffffffffffffffffffffffffffffff168482815181106200013f57fe5b60200260200101516020015173ffffffffffffffffffffffffffffffffffffffff1614620003e2576000600260008684815181106200017a57fe5b60200260200101516020015173ffffffffffffffffffffffffffffffffffffffff1673ffffffffffffffffffffffffffffffffffffffff16815260200190815260200160002060009054906101000a900463ffffffff1663ffffffff1614156200025b57600160026000868481518110620001f157fe5b60200260200101516020015173ffffffffffffffffffffffffffffffffffffffff1673ffffffffffffffffffffffffffffffffffffffff16815260200190815260200160002060006101000a81548163ffffffff021916908363ffffffff160217905550620003e1565b600260008583815181106200026c57fe5b60200260200101516020015173ffffffffffffffffffffffffffffffffffffffff1673ffffffffffffffffffffffffffffffffffffffff168152602001908152602001600020600081819054906101000a900463ffffffff168092919060010191906101000a81548163ffffffff021916908363ffffffff160217905550506002806000868481518110620002fd57fe5b60200260200101516020015173ffffffffffffffffffffffffffffffffffffffff1673ffffffffffffffffffffffffffffffffffffffff16815260200190815260200160002060009054906101000a900463ffffffff1663ffffffff161415620003e05760038482815181106200037057fe5b60200260200101516020015190806001815401808255809150509060018203906000526020600020016000909192909190916101000a81548173ffffffffffffffffffffffffffffffffffffffff021916908373ffffffffffffffffffffffffffffffffffffffff160217905550505b5b5b80806001019150506200003d565b5081600160006101000a81548173ffffffffffffffffffffffffffffffffffffffff021916908373ffffffffffffffffffffffffffffffffffffffff16021790555060405180606001604052808263ffffffff168152602001600063ffffffff168152602001600063ffffffff16815250600560008201518160000160006101000a81548163ffffffff021916908363ffffffff16021790555060208201518160000160046101000a81548163ffffffff021916908363ffffffff16021790555060408201518160000160086101000a81548163ffffffff021916908363ffffffff16021790555090505050505062000730565b600081519050620004f581620006fc565b92915050565b600082601f8301126200050d57600080fd5b8151620005246200051e826200068f565b62000661565b915081818352602084019350602081019050838560408402820111156200054a57600080fd5b60005b838110156200057e578162000563888262000588565b8452602084019350604083019250506001810190506200054d565b5050505092915050565b6000604082840312156200059b57600080fd5b620005a7604062000661565b90506000620005b984828501620004e4565b6000830152506020620005cf84828501620004e4565b60208301525092915050565b600081519050620005ec8162000716565b92915050565b6000806000606084860312156200060857600080fd5b600084015167ffffffffffffffff8111156200062357600080fd5b6200063186828701620004fb565b93505060206200064486828701620004e4565b92505060406200065786828701620005db565b9150509250925092565b6000604051905081810181811067ffffffffffffffff821117156200068557600080fd5b8060405250919050565b600067ffffffffffffffff821115620006a757600080fd5b602082029050602081019050919050565b6000620006c582620006cc565b9050919050565b600073ffffffffffffffffffffffffffffffffffffffff82169050919050565b600063ffffffff82169050919050565b6200070781620006b8565b81146200071357600080fd5b50565b6200072181620006ec565b81146200072d57600080fd5b50565b612c9f80620007406000396000f3fe6080604052600436106100a75760003560e01c80636286cb59116100645780636286cb591461019c5780639fa6a6e3146101d9578063a77d753014610204578063c586ff671461022f578063e2fdcc171461026c578063f982c83b14610297576100a7565b806305698612146100ac57806306a49fce146100c35780631c9a34e3146100ee578063407c30771461011757806343c89d02146101425780635a26164b14610180575b600080fd5b3480156100b857600080fd5b506100c16102d4565b005b3480156100cf57600080fd5b506100d8611b56565b6040516100e591906129bb565b60405180910390f35b3480156100fa57600080fd5b506101156004803603610110919081019061255f565b611c3d565b005b34801561012357600080fd5b5061012c611dbc565b6040516101399190612a98565b60405180910390f35b34801561014e57600080fd5b5061016960048036036101649190810190612588565b611dc2565b60405161017792919061295b565b60405180910390f35b61019a600480360361019591908101906125b1565b611e33565b005b3480156101a857600080fd5b506101c360048036036101be919081019061251e565b6122c1565b6040516101d091906129bb565b60405180910390f35b3480156101e557600080fd5b506101ee612330565b6040516101fb9190612a98565b60405180910390f35b34801561021057600080fd5b50610219612336565b60405161022691906129bb565b60405180910390f35b34801561023b57600080fd5b50610256600480360361025191908101906125ed565b6123c4565b60405161026391906129dd565b60405180910390f35b34801561027857600080fd5b506102816123fa565b60405161028e9190612940565b60405180910390f35b3480156102a357600080fd5b506102be60048036036102b99190810190612588565b612420565b6040516102cb919061290a565b60405180910390f35b600560000160009054906101000a900463ffffffff1663ffffffff16600560000160089054906101000a900463ffffffff1663ffffffff161461034c576040517f08c379a000000000000000000000000000000000000000000000000000000000815260040161034390612a78565b60405180910390fd5b6000809050600080905060008090505b6003805490508163ffffffff1610156106675760036007548161037b57fe5b046006600060038463ffffffff168154811061039357fe5b9060005260206000200160009054906101000a900473ffffffffffffffffffffffffffffffffffffffff1673ffffffffffffffffffffffffffffffffffffffff1673ffffffffffffffffffffffffffffffffffffffff168152602001908152602001600020600101541061065a57600073ffffffffffffffffffffffffffffffffffffffff168373ffffffffffffffffffffffffffffffffffffffff16141561047b5760038163ffffffff168154811061044957fe5b9060005260206000200160009054906101000a900473ffffffffffffffffffffffffffffffffffffffff169250610659565b600660008473ffffffffffffffffffffffffffffffffffffffff1673ffffffffffffffffffffffffffffffffffffffff168152602001908152602001600020600101546006600060038463ffffffff16815481106104d557fe5b9060005260206000200160009054906101000a900473ffffffffffffffffffffffffffffffffffffffff1673ffffffffffffffffffffffffffffffffffffffff1673ffffffffffffffffffffffffffffffffffffffff1681526020019081526020016000206001015411156105895760038163ffffffff168154811061055757fe5b9060005260206000200160009054906101000a900473ffffffffffffffffffffffffffffffffffffffff169250610658565b600660008473ffffffffffffffffffffffffffffffffffffffff1673ffffffffffffffffffffffffffffffffffffffff168152602001908152602001600020600101546006600060038463ffffffff16815481106105e357fe5b9060005260206000200160009054906101000a900473ffffffffffffffffffffffffffffffffffffffff1673ffffffffffffffffffffffffffffffffffffffff1673ffffffffffffffffffffffffffffffffffffffff16815260200190815260200160002060010154141561065757600191505b5b5b5b808060010191505061035c565b50600073ffffffffffffffffffffffffffffffffffffffff168273ffffffffffffffffffffffffffffffffffffffff1614610a82576000151581151514156109ba5760008090505b600a805490508163ffffffff161015610936578273ffffffffffffffffffffffffffffffffffffffff1660096000600a8463ffffffff16815481106106f057fe5b9060005260206000200160009054906101000a900473ffffffffffffffffffffffffffffffffffffffff1673ffffffffffffffffffffffffffffffffffffffff1673ffffffffffffffffffffffffffffffffffffffff16815260200190815260200160002060010160009054906101000a900473ffffffffffffffffffffffffffffffffffffffff1673ffffffffffffffffffffffffffffffffffffffff1614610929576000600a8263ffffffff16815481106107a957fe5b9060005260206000200160009054906101000a900473ffffffffffffffffffffffffffffffffffffffff169050600060096000600a8563ffffffff16815481106107ef57fe5b9060005260206000200160009054906101000a900473ffffffffffffffffffffffffffffffffffffffff1673ffffffffffffffffffffffffffffffffffffffff1673ffffffffffffffffffffffffffffffffffffffff168152602001908152602001600020600001549050600060096000600a8663ffffffff168154811061087357fe5b9060005260206000200160009054906101000a900473ffffffffffffffffffffffffffffffffffffffff1673ffffffffffffffffffffffffffffffffffffffff1673ffffffffffffffffffffffffffffffffffffffff168152602001908152602001600020600001819055508173ffffffffffffffffffffffffffffffffffffffff166108fc829081150290604051600060405180830381858888f19350505050158015610925573d6000803e3d6000fd5b5050505b80806001019150506106af565b508173ffffffffffffffffffffffffffffffffffffffff166108fc479081150290604051600060405180830381858888f1935050505015801561097d573d6000803e3d6000fd5b507f871e83b983a039f59e0f4c08b833ff72e17dcba70607314804f13146995a8f76826040516109ad9190612925565b60405180910390a1610a7d565b600160009054906101000a900473ffffffffffffffffffffffffffffffffffffffff1673ffffffffffffffffffffffffffffffffffffffff166108fc479081150290604051600060405180830381858888f19350505050158015610a22573d6000803e3d6000fd5b507fa1134e3746de254ae26240f518fc8ba38299f6dcf7399d77c8a117857b1c46c5600160009054906101000a900473ffffffffffffffffffffffffffffffffffffffff16604051610a749190612925565b60405180910390a15b611b52565b606060008054905060038054905001604051908082528060200260200182016040528015610abf5781602001602082028038833980820191505090505b509050600080905060008090505b6003805490508163ffffffff161015610e6b576000821415610b765760038163ffffffff1681548110610afc57fe5b9060005260206000200160009054906101000a900473ffffffffffffffffffffffffffffffffffffffff16838381518110610b3357fe5b602002602001019073ffffffffffffffffffffffffffffffffffffffff16908173ffffffffffffffffffffffffffffffffffffffff168152505081806001019250505b6006600084600081518110610b8757fe5b602002602001015173ffffffffffffffffffffffffffffffffffffffff1673ffffffffffffffffffffffffffffffffffffffff168152602001908152602001600020600101546006600060038463ffffffff1681548110610be457fe5b9060005260206000200160009054906101000a900473ffffffffffffffffffffffffffffffffffffffff1673ffffffffffffffffffffffffffffffffffffffff1673ffffffffffffffffffffffffffffffffffffffff168152602001908152602001600020600101541115610cf35760009150610c60836122c1565b925060038163ffffffff1681548110610c7557fe5b9060005260206000200160009054906101000a900473ffffffffffffffffffffffffffffffffffffffff16838381518110610cac57fe5b602002602001019073ffffffffffffffffffffffffffffffffffffffff16908173ffffffffffffffffffffffffffffffffffffffff16815250508180600101925050610e5e565b6006600084600081518110610d0457fe5b602002602001015173ffffffffffffffffffffffffffffffffffffffff1673ffffffffffffffffffffffffffffffffffffffff168152602001908152602001600020600101546006600060038463ffffffff1681548110610d6157fe5b9060005260206000200160009054906101000a900473ffffffffffffffffffffffffffffffffffffffff1673ffffffffffffffffffffffffffffffffffffffff1673ffffffffffffffffffffffffffffffffffffffff168152602001908152602001600020600101541415610e5d5760038163ffffffff1681548110610de357fe5b9060005260206000200160009054906101000a900473ffffffffffffffffffffffffffffffffffffffff16838381518110610e1a57fe5b602002602001019073ffffffffffffffffffffffffffffffffffffffff16908173ffffffffffffffffffffffffffffffffffffffff168152505081806001019250505b5b8080600101915050610acd565b5060008090505b6000805490508163ffffffff161015611231576000821415610f225760008163ffffffff1681548110610ea157fe5b906000526020600020906002020160000160009054906101000a900473ffffffffffffffffffffffffffffffffffffffff16838381518110610edf57fe5b602002602001019073ffffffffffffffffffffffffffffffffffffffff16908173ffffffffffffffffffffffffffffffffffffffff168152505081806001019250505b6006600084600081518110610f3357fe5b602002602001015173ffffffffffffffffffffffffffffffffffffffff1673ffffffffffffffffffffffffffffffffffffffff1681526020019081526020016000206001015460066000808463ffffffff1681548110610f8f57fe5b906000526020600020906002020160000160009054906101000a900473ffffffffffffffffffffffffffffffffffffffff1673ffffffffffffffffffffffffffffffffffffffff1673ffffffffffffffffffffffffffffffffffffffff1681526020019081526020016000206001015411156110ac5760009150611012836122c1565b925060008163ffffffff168154811061102757fe5b906000526020600020906002020160000160009054906101000a900473ffffffffffffffffffffffffffffffffffffffff1683838151811061106557fe5b602002602001019073ffffffffffffffffffffffffffffffffffffffff16908173ffffffffffffffffffffffffffffffffffffffff16815250508180600101925050611224565b60066000846000815181106110bd57fe5b602002602001015173ffffffffffffffffffffffffffffffffffffffff1673ffffffffffffffffffffffffffffffffffffffff1681526020019081526020016000206001015460066000808463ffffffff168154811061111957fe5b906000526020600020906002020160000160009054906101000a900473ffffffffffffffffffffffffffffffffffffffff1673ffffffffffffffffffffffffffffffffffffffff1673ffffffffffffffffffffffffffffffffffffffff1681526020019081526020016000206001015414156112235760008163ffffffff16815481106111a257fe5b906000526020600020906002020160000160009054906101000a900473ffffffffffffffffffffffffffffffffffffffff168383815181106111e057fe5b602002602001019073ffffffffffffffffffffffffffffffffffffffff16908173ffffffffffffffffffffffffffffffffffffffff168152505081806001019250505b5b8080600101915050610e72565b50600181141561156a5760008090505b600a805490508110156114be578260008151811061125b57fe5b602002602001015173ffffffffffffffffffffffffffffffffffffffff1660096000600a848154811061128a57fe5b9060005260206000200160009054906101000a900473ffffffffffffffffffffffffffffffffffffffff1673ffffffffffffffffffffffffffffffffffffffff1673ffffffffffffffffffffffffffffffffffffffff16815260200190815260200160002060010160009054906101000a900473ffffffffffffffffffffffffffffffffffffffff1673ffffffffffffffffffffffffffffffffffffffff16146114b1576000600a828154811061133d57fe5b9060005260206000200160009054906101000a900473ffffffffffffffffffffffffffffffffffffffff169050600060096000600a858154811061137d57fe5b9060005260206000200160009054906101000a900473ffffffffffffffffffffffffffffffffffffffff1673ffffffffffffffffffffffffffffffffffffffff1673ffffffffffffffffffffffffffffffffffffffff168152602001908152602001600020600001549050600060096000600a86815481106113fb57fe5b9060005260206000200160009054906101000a900473ffffffffffffffffffffffffffffffffffffffff1673ffffffffffffffffffffffffffffffffffffffff1673ffffffffffffffffffffffffffffffffffffffff168152602001908152602001600020600001819055508173ffffffffffffffffffffffffffffffffffffffff166108fc829081150290604051600060405180830381858888f193505050501580156114ad573d6000803e3d6000fd5b5050505b8080600101915050611241565b50816000815181106114cc57fe5b602002602001015173ffffffffffffffffffffffffffffffffffffffff166108fc479081150290604051600060405180830381858888f19350505050158015611519573d6000803e3d6000fd5b507f871e83b983a039f59e0f4c08b833ff72e17dcba70607314804f13146995a8f768260008151811061154857fe5b602002602001015160405161155d919061290a565b60405180910390a1611b4f565b6000600660008460008151811061157d57fe5b602002602001015173ffffffffffffffffffffffffffffffffffffffff1673ffffffffffffffffffffffffffffffffffffffff16815260200190815260200160002060000160009054906101000a900463ffffffff1663ffffffff1690506000836000815181106115ea57fe5b60200260200101519050600094506000600190505b8381101561178857826006600087848151811061161857fe5b602002602001015173ffffffffffffffffffffffffffffffffffffffff1673ffffffffffffffffffffffffffffffffffffffff16815260200190815260200160002060000160009054906101000a900463ffffffff1663ffffffff161315611703576006600086838151811061168a57fe5b602002602001015173ffffffffffffffffffffffffffffffffffffffff1673ffffffffffffffffffffffffffffffffffffffff16815260200190815260200160002060000160009054906101000a900463ffffffff1663ffffffff1692508481815181106116f457fe5b60200260200101519150600095505b6006600086838151811061171357fe5b602002602001015173ffffffffffffffffffffffffffffffffffffffff1673ffffffffffffffffffffffffffffffffffffffff16815260200190815260200160002060000160009054906101000a900463ffffffff1663ffffffff1683141561177b57600195505b80806001019150506115ff565b5060011515851515141561185d57600160009054906101000a900473ffffffffffffffffffffffffffffffffffffffff1673ffffffffffffffffffffffffffffffffffffffff166108fc479081150290604051600060405180830381858888f193505050501580156117fe573d6000803e3d6000fd5b507fa1134e3746de254ae26240f518fc8ba38299f6dcf7399d77c8a117857b1c46c5600160009054906101000a900473ffffffffffffffffffffffffffffffffffffffff166040516118509190612925565b60405180910390a1611b4c565b60008090505b600a80549050811015611acc578173ffffffffffffffffffffffffffffffffffffffff1660096000600a848154811061189857fe5b9060005260206000200160009054906101000a900473ffffffffffffffffffffffffffffffffffffffff1673ffffffffffffffffffffffffffffffffffffffff1673ffffffffffffffffffffffffffffffffffffffff16815260200190815260200160002060010160009054906101000a900473ffffffffffffffffffffffffffffffffffffffff1673ffffffffffffffffffffffffffffffffffffffff1614611abf576000600a828154811061194b57fe5b9060005260206000200160009054906101000a900473ffffffffffffffffffffffffffffffffffffffff169050600060096000600a858154811061198b57fe5b9060005260206000200160009054906101000a900473ffffffffffffffffffffffffffffffffffffffff1673ffffffffffffffffffffffffffffffffffffffff1673ffffffffffffffffffffffffffffffffffffffff168152602001908152602001600020600001549050600060096000600a8681548110611a0957fe5b9060005260206000200160009054906101000a900473ffffffffffffffffffffffffffffffffffffffff1673ffffffffffffffffffffffffffffffffffffffff1673ffffffffffffffffffffffffffffffffffffffff168152602001908152602001600020600001819055508173ffffffffffffffffffffffffffffffffffffffff166108fc829081150290604051600060405180830381858888f19350505050158015611abb573d6000803e3d6000fd5b5050505b8080600101915050611863565b508073ffffffffffffffffffffffffffffffffffffffff166108fc479081150290604051600060405180830381858888f19350505050158015611b13573d6000803e3d6000fd5b507f871e83b983a039f59e0f4c08b833ff72e17dcba70607314804f13146995a8f7681604051611b439190612925565b60405180910390a15b50505b50505b5050565b606080600080549050604051908082528060200260200182016040528015611b8d5781602001602082028038833980820191505090505b50905060008090505b600080549050811015611c355760008181548110611bb057fe5b906000526020600020906002020160000160009054906101000a900473ffffffffffffffffffffffffffffffffffffffff16828281518110611bee57fe5b602002602001019073ffffffffffffffffffffffffffffffffffffffff16908173ffffffffffffffffffffffffffffffffffffffff16815250508080600101915050611b96565b508091505090565b600560000160009054906101000a900463ffffffff1663ffffffff16600560000160049054906101000a900463ffffffff1663ffffffff1610611cb5576040517f08c379a0000000000000000000000000000000000000000000000000000000008152600401611cac906129f8565b60405180910390fd5b6000801b600460003373ffffffffffffffffffffffffffffffffffffffff1673ffffffffffffffffffffffffffffffffffffffff168152602001908152602001600020541415611d3e576005600001600481819054906101000a900463ffffffff168092919060010191906101000a81548163ffffffff021916908363ffffffff160217905550505b80600460003373ffffffffffffffffffffffffffffffffffffffff1673ffffffffffffffffffffffffffffffffffffffff168152602001908152602001600020819055507f8033de21ae72f21fa8773c90e60e7a5188cb8e44b97f487a5c362a491882ae3433604051611db19190612925565b60405180910390a150565b60075481565b60008181548110611dcf57fe5b90600052602060002090600202016000915090508060000160009054906101000a900473ffffffffffffffffffffffffffffffffffffffff16908060010160009054906101000a900473ffffffffffffffffffffffffffffffffffffffff16905082565b600560000160009054906101000a900463ffffffff1663ffffffff16600560000160049054906101000a900463ffffffff1663ffffffff1614611eab576040517f08c379a0000000000000000000000000000000000000000000000000000000008152600401611ea290612a38565b60405180910390fd5b6000801b600460003373ffffffffffffffffffffffffffffffffffffffff1673ffffffffffffffffffffffffffffffffffffffff168152602001908152602001600020541415611f30576040517f08c379a0000000000000000000000000000000000000000000000000000000008152600401611f2790612a58565b60405180910390fd5b6000600460003373ffffffffffffffffffffffffffffffffffffffff1673ffffffffffffffffffffffffffffffffffffffff16815260200190815260200160002054905060008060001b9050611f878484346123c4565b9050808214611fcb576040517f08c379a0000000000000000000000000000000000000000000000000000000008152600401611fc290612a18565b60405180910390fd5b34600660008573ffffffffffffffffffffffffffffffffffffffff1673ffffffffffffffffffffffffffffffffffffffff1681526020019081526020016000206001015401600660008573ffffffffffffffffffffffffffffffffffffffff1673ffffffffffffffffffffffffffffffffffffffff168152602001908152602001600020600101819055506001600660008573ffffffffffffffffffffffffffffffffffffffff1673ffffffffffffffffffffffffffffffffffffffff16815260200190815260200160002060000160009054906101000a900463ffffffff1601600660008573ffffffffffffffffffffffffffffffffffffffff1673ffffffffffffffffffffffffffffffffffffffff16815260200190815260200160002060000160006101000a81548163ffffffff021916908363ffffffff160217905550346007540160078190555060405180604001604052803481526020018473ffffffffffffffffffffffffffffffffffffffff16815250600960003373ffffffffffffffffffffffffffffffffffffffff1673ffffffffffffffffffffffffffffffffffffffff1681526020019081526020016000206000820151816000015560208201518160010160006101000a81548173ffffffffffffffffffffffffffffffffffffffff021916908373ffffffffffffffffffffffffffffffffffffffff160217905550905050600a3390806001815401808255809150509060018203906000526020600020016000909192909190916101000a81548173ffffffffffffffffffffffffffffffffffffffff021916908373ffffffffffffffffffffffffffffffffffffffff160217905550506005600001600881819054906101000a900463ffffffff168092919060010191906101000a81548163ffffffff021916908363ffffffff16021790555050476008819055507f389bc8f710c058e5d0507e8bd7a82953376bea3c5d11fddd2b31144904c5fc093334856040516122b393929190612984565b60405180910390a150505050565b606060008090505b82518110156123275760008382815181106122e057fe5b602002602001019073ffffffffffffffffffffffffffffffffffffffff16908173ffffffffffffffffffffffffffffffffffffffff168152505080806001019150506122c9565b50819050919050565b60085481565b606060038054806020026020016040519081016040528092919081815260200182805480156123ba57602002820191906000526020600020905b8160009054906101000a900473ffffffffffffffffffffffffffffffffffffffff1673ffffffffffffffffffffffffffffffffffffffff1681526020019060010190808311612370575b5050505050905090565b60008383836040516020016123db93929190612ab3565b6040516020818303038152906040528051906020012090509392505050565b600160009054906101000a900473ffffffffffffffffffffffffffffffffffffffff1681565b6003818154811061242d57fe5b906000526020600020016000915054906101000a900473ffffffffffffffffffffffffffffffffffffffff1681565b60008135905061246b81612c17565b92915050565b600082601f83011261248257600080fd5b813561249561249082612b17565b612aea565b915081818352602084019350602081019050838560208402820111156124ba57600080fd5b60005b838110156124ea57816124d0888261245c565b8452602084019350602083019250506001810190506124bd565b5050505092915050565b60008135905061250381612c2e565b92915050565b60008135905061251881612c45565b92915050565b60006020828403121561253057600080fd5b600082013567ffffffffffffffff81111561254a57600080fd5b61255684828501612471565b91505092915050565b60006020828403121561257157600080fd5b600061257f848285016124f4565b91505092915050565b60006020828403121561259a57600080fd5b60006125a884828501612509565b91505092915050565b600080604083850312156125c457600080fd5b60006125d285828601612509565b92505060206125e38582860161245c565b9150509250929050565b60008060006060848603121561260257600080fd5b600061261086828701612509565b93505060206126218682870161245c565b925050604061263286828701612509565b9150509250925092565b60006126488383612672565b60208301905092915050565b61265d81612be1565b82525050565b61266c81612b9b565b82525050565b61267b81612b89565b82525050565b61268a81612b89565b82525050565b600061269b82612b4f565b6126a58185612b67565b93506126b083612b3f565b8060005b838110156126e15781516126c8888261263c565b97506126d383612b5a565b9250506001810190506126b4565b5085935050505092915050565b6126f781612bad565b82525050565b600061270a602f83612b78565b91507f43616e6e6f7420766f7465206e6f772c20766f74696e672071756f72756d206860008301527f6173206265656e207265616368656400000000000000000000000000000000006020830152604082019050919050565b6000612770603383612b78565b91507f53656e7420656e76656c6f706520646f6573206e6f7420636f72726573706f6e60008301527f6420746f20746865206f6e6520636173746564000000000000000000000000006020830152604082019050919050565b60006127d6603683612b78565b91507f43616e6e6f74206f70656e20616e20656e76656c6f70652c20766f74696e672060008301527f71756f72756d206e6f74207265616368656420796574000000000000000000006020830152604082019050919050565b600061283c602383612b78565b91507f5468652073656e64657220686173206e6f742063617374656420616e7920766f60008301527f74657300000000000000000000000000000000000000000000000000000000006020830152604082019050919050565b60006128a2603c83612b78565b91507f43616e6e6f7420636865636b207468652077696e6e65722c206e65656420746f60008301527f206f70656e20616c6c207468652073656e7420656e76656c6f706573000000006020830152604082019050919050565b61290481612bd7565b82525050565b600060208201905061291f6000830184612681565b92915050565b600060208201905061293a6000830184612654565b92915050565b60006020820190506129556000830184612663565b92915050565b60006040820190506129706000830185612663565b61297d6020830184612663565b9392505050565b60006060820190506129996000830186612654565b6129a660208301856128fb565b6129b36040830184612681565b949350505050565b600060208201905081810360008301526129d58184612690565b905092915050565b60006020820190506129f260008301846126ee565b92915050565b60006020820190508181036000830152612a11816126fd565b9050919050565b60006020820190508181036000830152612a3181612763565b9050919050565b60006020820190508181036000830152612a51816127c9565b9050919050565b60006020820190508181036000830152612a718161282f565b9050919050565b60006020820190508181036000830152612a9181612895565b9050919050565b6000602082019050612aad60008301846128fb565b92915050565b6000606082019050612ac860008301866128fb565b612ad56020830185612681565b612ae260408301846128fb565b949350505050565b6000604051905081810181811067ffffffffffffffff82111715612b0d57600080fd5b8060405250919050565b600067ffffffffffffffff821115612b2e57600080fd5b602082029050602081019050919050565b6000819050602082019050919050565b600081519050919050565b6000602082019050919050565b600082825260208201905092915050565b600082825260208201905092915050565b6000612b9482612bb7565b9050919050565b6000612ba682612bb7565b9050919050565b6000819050919050565b600073ffffffffffffffffffffffffffffffffffffffff82169050919050565b6000819050919050565b6000612bec82612bf3565b9050919050565b6000612bfe82612c05565b9050919050565b6000612c1082612bb7565b9050919050565b612c2081612b89565b8114612c2b57600080fd5b50565b612c3781612bad565b8114612c4257600080fd5b50565b612c4e81612bd7565b8114612c5957600080fd5b5056fea365627a7a72315820157251d3d932e395da3c497635e4110cb158a641e502ba0117e472cd7dbe1ff26c6578706572696d656e74616cf564736f6c63430005100040",
  "source": "pragma solidity 0.5.16;\npragma experimental ABIEncoderV2;\n\ncontract Mayor {\n    \n    // Structs, events, and modifiers\n    \n    // Store refund data\n    struct Refund {\n        uint soul;\n        address symbol;\n    }\n    \n    // Data to manage the confirmation\n    struct Conditions {\n        uint32 quorum;\n        uint32 envelopes_casted;\n        uint32 envelopes_opened;\n    }\n    \n    //candidate\n    struct Candidate {\n        address payable cand;\n        address payable coal;\n    }\n    //Data to manage the case in witch two or more candidates are the same souls\n    struct number{\n        uint32 numV;\n        uint amount_souls;\n    }\n    event NewMayor(address _candidate);\n    event Sayonara(address _escrow);\n    event EnvelopeCast(address _voter);\n    event EnvelopeOpen(address _voter, uint _soul, address _symbol);\n    \n    // Someone can vote as long as the quorum is not reached\n    modifier canVote() {\n        require(voting_condition.envelopes_casted < voting_condition.quorum, \"Cannot vote now, voting quorum has been reached\");\n        _;   \n    }\n    \n    // Envelopes can be opened only after receiving the quorum\n    modifier canOpen() {\n        require(voting_condition.envelopes_casted == voting_condition.quorum, \"Cannot open an envelope, voting quorum not reached yet\");\n        _;\n    }\n    \n    // The outcome of the confirmation can be computed as soon as all the casted envelopes have been opened\n    modifier canCheckOutcome() {\n        require(voting_condition.envelopes_opened == voting_condition.quorum, \"Cannot check the winner, need to open all the sent envelopes\");\n        _;\n    }\n    \n    // State attributes\n\n    // Initialization variables\n    Candidate [] public candidate_list;\n    address payable public escrow;\n    \n    mapping(address=> uint32) coalition_list;\n    address [] public  coalitions;\n    \n    // Voting phase variables\n    mapping(address => bytes32) envelopes;\n\n    Conditions voting_condition;\n    \n    //variable for keeping track of the vote and the soul received by each candidate and coalitions\n    mapping(address => number) votes;\n    uint public tot_votes;\n    \n    uint public current;\n    \n    // Refund phase variables\n    mapping(address => Refund) souls;\n    address [] voters;\n\n    /// @notice The constructor only initializes internal variables\n    /// @param _candidate_list (address) The address of the mayor candidate\n    /// @param _escrow (address) The address of the escrow account\n    /// @param _quorum (address) The number of voters required to finalize the confirmation\n    constructor(Candidate [] memory _candidate_list, address payable _escrow, uint32 _quorum) public {\n        \n         for(uint i=0; i < _candidate_list.length; i++ ){\n                candidate_list.push(_candidate_list[i]);\n                // if the candidate is part of a coalition\n                if(_candidate_list[i].coal !=  0x0000000000000000000000000000000000000000)\n                    // if is a new coalition\n                    if(coalition_list[_candidate_list[i].coal] == 0x0){\n                        coalition_list[_candidate_list[i].coal] = 1;\n                        \n                    }\n                    else{\n                        coalition_list[_candidate_list[i].coal]++;\n                        if(coalition_list[_candidate_list[i].coal] == 2)\n                            coalitions.push(_candidate_list[i].coal);\n                    }\n               \n            }\n        \n        escrow = _escrow;\n        voting_condition = Conditions({quorum: _quorum, envelopes_casted: 0, envelopes_opened: 0});\n    }\n\n    /// @notice Store a received voting envelope\n    /// @param _envelope The envelope represented as the keccak256 hash of (sigil, doblon, soul) \n    function cast_envelope(bytes32 _envelope) canVote public {\n        \n        if(envelopes[msg.sender] == 0x0) \n            voting_condition.envelopes_casted++;\n\n        envelopes[msg.sender] = _envelope;\n        emit EnvelopeCast(msg.sender);\n    }\n    \n    /// @notice Open an envelope and store the vote information\n    /// @param _sigil (uint) The secret sigil of a voter\n    /// @param _symbol(address) The voting preference\n    /// @dev The soul is sent as crypto\n    /// @dev Need to recompute the hash to validate the envelope previously casted\n    function open_envelope(uint _sigil, address _symbol) canOpen public payable {\n        \n        require(envelopes[msg.sender] != 0x0, \"The sender has not casted any votes\");\n        \n        bytes32 _casted_envelope = envelopes[msg.sender];\n        bytes32 _sent_envelope = 0x0;\n        \n        //recalculate the caller's envelope to check if it's an honest voter\n        _sent_envelope = compute_envelope(_sigil, _symbol, msg.value );\n        require(_casted_envelope == _sent_envelope, \"Sent envelope does not correspond to the one casted\");\n      \n        //update the entry of the _symbol with the soul and the vote sended by the voter \n        votes[_symbol].amount_souls =  votes[_symbol].amount_souls + msg.value;\n        votes[_symbol].numV = votes[_symbol].numV + 1;\n        tot_votes = tot_votes + msg.value;\n        \n        //update the souls structure with the voter data\n        souls[msg.sender] = Refund({soul:msg.value, symbol:_symbol});\n        voters.push(msg.sender);\n     \n        //increase the open envelopes\n        voting_condition.envelopes_opened++;\n        current = address(this).balance;\n        emit EnvelopeOpen(msg.sender, msg.value, _symbol);\n    }\n    \n    /// @notice Either confirm or kick out the candidate. Refund the electors who voted for the losing outcome\n    function mayor_or_sayonara() canCheckOutcome public {\n        //coalitions: case in which a coalition has soul> = 1/3 of the total soul \n        address payable probMayor = 0x0000000000000000000000000000000000000000;\n        bool flag = false;\n        for(uint32 i=0 ; i < coalitions.length ; i++ ){\n            if (votes[coalitions[i]].amount_souls >= tot_votes/3){\n                //case of first coalition \n                if (probMayor == 0x0000000000000000000000000000000000000000) \n                        probMayor = address(uint160(coalitions[i]));\n                else {\n                    //case where a coalition has a higher amount of soul than the previous probMayor\n                        if(votes[coalitions[i]].amount_souls > votes[probMayor].amount_souls) \n                            probMayor = address(uint160(coalitions[i]));\n                    //case in which two coalitions have soul> = 1/3 of the total and have equal amount of soul\n                        else if(votes[coalitions[i]].amount_souls == votes[probMayor].amount_souls){\n                            flag = true;\n                        }\n                }\n            }\n        }\n        \n        if (probMayor != 0x0000000000000000000000000000000000000000){\n            // case where there is only one coalition with> 1/3 soul and higher soul count than the other coalitions\n            // all those who did not vote for the winning coalition are refounded\n            // and the winning coalition is announced as mayor\n            if(flag == false){\n                for(uint32 i=0; i < voters.length; i++ ){\n                    if(souls[voters[i]].symbol != probMayor){\n                        address payable addRefunded = address(uint160(voters[i]));\n                        uint refound = souls[voters[i]].soul;\n                        souls[voters[i]].soul = 0;\n                        addRefunded.transfer(refound);\n                    }\n                }\n                probMayor.transfer(address(this).balance);\n                emit NewMayor(probMayor);\n            }\n            // case where two coalitions have soul> = 1/3 of the total and have equal amount of soul\n            // all the balance of the contract ends up in the escrow account and everyone loses\n            else{\n                escrow.transfer(address(this).balance);\n                emit Sayonara(escrow);\n            }\n         \n        }\n        \n        // case where there is no coalition with soul> 1/3 of total souls\n        // therefore the elections proceed normally with the coalitions that are considered as normal participants\n        else{\n            address[] memory winners = new address[](coalitions.length + candidate_list.length);\n            uint pari = 0;\n            // to look for possible winners we first inspect the coalitions \n            for (uint32 i = 0; i < coalitions.length; i++ ){\n                // if it is the first element we check\n                if (pari == 0){\n                     winners[pari] = coalitions[i];\n                     pari++;\n                }\n                // if we find one with greater soul than those in the array of possible winners\n                // we put it in the first position and reset the other positions\n                if(votes[coalitions[i]].amount_souls > votes[winners[0]].amount_souls){\n                    pari = 0;\n                    winners = azzera(winners);\n                    winners[pari] = coalitions[i];\n                    pari++;\n                } \n                // if we find one with soul equal to those present in the array of possible winners\n                // we put it in the next position in the array\n                else if(votes[coalitions[i]].amount_souls == votes[winners[0]].amount_souls){\n                         winners[pari] = coalitions[i]; \n                         pari++;\n                }\n            }\n           // We continue by scanning all individual candidates, in the same way\n            for (uint32 i = 0; i < candidate_list.length; i++ ){\n                \n                if (pari == 0){\n                     winners[pari] = candidate_list[i].cand;\n                     pari++;\n                }\n                if(votes[candidate_list[i].cand].amount_souls > votes[winners[0]].amount_souls){\n                    pari = 0;\n                    winners = azzera(winners);\n                    winners[pari] = candidate_list[i].cand;\n                    pari++;\n                }   \n                else if(votes[candidate_list[i].cand].amount_souls == votes[winners[0]].amount_souls){\n                        winners[pari] = candidate_list[i].cand; \n                        pari++;\n                }\n            }\n             // if there is only one candidate in the array then \n             // only one candidate (single or coalition) has more soul counts than all the others\n            if(pari == 1){\n                // let's go make a refund for all those who didn't vote for him and elect the new mayor\n               for(uint i=0; i < voters.length; i++ ){\n                    if(souls[voters[i]].symbol != winners[0]){\n                        address payable addRefunded = address(uint160(voters[i]));\n                        uint refound = souls[voters[i]].soul;\n                        souls[voters[i]].soul = 0;\n                        addRefunded.transfer(refound);\n                    }\n                }\n                address(uint160(winners[0])).transfer(address(this).balance);\n                emit NewMayor(winners[0]); \n            }\n            // otherwise in the array there are more candidates (singles or coalitions) with soul obtained the same\n            // and in this case we will look at the number of votes received by the latter to decide the winner\n            else {\n                // we set the first element of the winners array as winner\n                int max_vote_recived = votes[winners[0]].numV;\n                address payable winner = address(uint160(winners[0]));\n                flag = false;\n                \n                for(uint i = 1 ; i < pari ; i++){\n                   // if the current element of the array has a number of votes greater than winner update winner\n                    if( votes[winners[i]].numV > max_vote_recived){\n                        max_vote_recived = votes[winners[i]].numV;\n                        winner = address(uint160(winners[i]));\n                        flag = false;\n                    }\n                    // if the current element of the array has a number of votes equal to winner set the flag to true\n                    if(max_vote_recived == votes[winners[i]].numV){\n                        flag = true;\n                    }\n                }\n                // if the flag is true then it means that in the array winner (where all elements have the same number of souls)\n                // there are at least two candidates with the highest number of votes among all who are in this array\n                // then you will have to adopt the escrow rule\n                if (flag == true){\n                    escrow.transfer(address(this).balance);\n                    emit Sayonara(escrow);\n                }\n                \n                // otherwise, only one candidate in the winners array has more votes than the others\n                // then there will be a mayor resulting in a refound for those who didn't vote for him\n                else{\n                     for(uint i=0; i < voters.length; i++ ){\n                         if(souls[voters[i]].symbol != winner){\n                            address payable addRefunded = address(uint160(voters[i]));\n                            uint refound = souls[voters[i]].soul;\n                            souls[voters[i]].soul = 0;\n                            addRefunded.transfer(refound);\n                        }\n                    }\n                    winner.transfer(address(this).balance);\n                    emit NewMayor(winner);\n    \n                }\n                \n                \n            }\n        }\n    }\n    \n   \n \n \n    /// @notice Compute a voting envelope\n    /// @param _sigil (uint) The secret sigil of a voter\n    /// @param _symbol (address) The voting preference\n    /// @param _soul (uint) The soul associated to the vote\n    function compute_envelope(uint _sigil, address _symbol, uint _soul) public pure returns(bytes32) {\n        \n        return keccak256(abi.encode(_sigil, _symbol, _soul));\n    }\n\n    function azzera(address[] memory array) public pure returns(address[] memory){\n        for(uint i = 0; i < array.length; i++){\n            array[i] = 0x0000000000000000000000000000000000000000;\n        }\n        return array;\n    }\n    function getCandidates() public view returns(address[] memory){\n        address[] memory cand = new address[](candidate_list.length);\n        for(uint i = 0; i < candidate_list.length; i++){\n            cand[i] = candidate_list[i].cand;\n        }\n        return cand;\n    }\n\n    function getCoalitions() public view returns(address[] memory){\n        return coalitions;\n    }\n\n    /*function getVotationGasConsumption(address[] memory cands, address[] memory coals ) public view \n                                                                    returns(uint[] memory){\n        uint[] memory gasArray = new uint[](cands.length+coals.length);\n\n        for(uint i = 0; i < cands.length; i++){\n            gasArray[i] = cands[i].balance;\n        }\n        for(uint i = 0; i < coals.length; i++){\n            gasArray[cands.length+i] = coals[i].balance;\n        }\n        \n        return gasArray;\n    }*/\n}\n\n",
  "sourcePath": "C:/Users/gianm/Desktop/Di_Rito_Gianmaria_54403_FinalProject/FinalProject/contracts/Mayor.sol",
  "compiler": {
    "name": "solc",
    "version": "0.5.16+commit.9c3226ce.Emscripten.clang"
  },
  "schemaVersion": "3.4.1",
  "updatedAt": "2021-07-30T14:10:31.010Z",
  "networkType": "ethereum",
  "devdoc": {
    "methods": {
      "cast_envelope(bytes32)": {
        "params": {
          "_envelope": "The envelope represented as the keccak256 hash of (sigil, doblon, soul) "
        }
      },
      "compute_envelope(uint256,address,uint256)": {
        "params": {
          "_sigil": "(uint) The secret sigil of a voter",
          "_soul": "(uint) The soul associated to the vote",
          "_symbol": "(address) The voting preference"
        }
      },
      "constructor": {
        "params": {
          "_candidate_list": "(address) The address of the mayor candidate",
          "_escrow": "(address) The address of the escrow account",
          "_quorum": "(address) The number of voters required to finalize the confirmation"
        }
      },
      "open_envelope(uint256,address)": {
        "details": "The soul is sent as cryptoNeed to recompute the hash to validate the envelope previously casted",
        "params": {
          "_sigil": "(uint) The secret sigil of a voter",
          "_symbol": "(address) The voting preference"
        }
      }
    }
  },
  "userdoc": {
    "methods": {
      "cast_envelope(bytes32)": {
        "notice": "Store a received voting envelope"
      },
      "compute_envelope(uint256,address,uint256)": {
        "notice": "Compute a voting envelope"
      },
      "constructor": "The constructor only initializes internal variables",
      "mayor_or_sayonara()": {
        "notice": "Either confirm or kick out the candidate. Refund the electors who voted for the losing outcome"
      },
      "open_envelope(uint256,address)": {
        "notice": "Open an envelope and store the vote information"
      }
    }
  }
}